{
  "contractName": "EnergyMarket",
  "abi": [
    {
      "constant": true,
      "inputs": [
        {
          "name": "",
          "type": "address"
        }
      ],
      "name": "coinBalances",
      "outputs": [
        {
          "name": "",
          "type": "uint256"
        }
      ],
      "payable": false,
      "stateMutability": "view",
      "type": "function"
    },
    {
      "constant": true,
      "inputs": [
        {
          "name": "",
          "type": "address"
        }
      ],
      "name": "hasRegistered",
      "outputs": [
        {
          "name": "",
          "type": "bool"
        }
      ],
      "payable": false,
      "stateMutability": "view",
      "type": "function"
    },
    {
      "constant": true,
      "inputs": [
        {
          "name": "",
          "type": "address"
        }
      ],
      "name": "energyBalances",
      "outputs": [
        {
          "name": "",
          "type": "uint256"
        }
      ],
      "payable": false,
      "stateMutability": "view",
      "type": "function"
    },
    {
      "anonymous": false,
      "inputs": [
        {
          "indexed": false,
          "name": "auctionId",
          "type": "uint256"
        },
        {
          "indexed": false,
          "name": "quantity",
          "type": "uint256"
        },
        {
          "indexed": false,
          "name": "auctionEnd",
          "type": "uint256"
        },
        {
          "indexed": false,
          "name": "createdBy",
          "type": "address"
        }
      ],
      "name": "EnergyGenerated",
      "type": "event"
    },
    {
      "anonymous": false,
      "inputs": [
        {
          "indexed": false,
          "name": "auctionId",
          "type": "uint256"
        },
        {
          "indexed": false,
          "name": "bidder",
          "type": "address"
        },
        {
          "indexed": false,
          "name": "amount",
          "type": "uint256"
        }
      ],
      "name": "BidIncreased",
      "type": "event"
    },
    {
      "anonymous": false,
      "inputs": [
        {
          "indexed": false,
          "name": "auctionId",
          "type": "uint256"
        },
        {
          "indexed": false,
          "name": "highestBidder",
          "type": "address"
        },
        {
          "indexed": false,
          "name": "highestBid",
          "type": "uint256"
        }
      ],
      "name": "AuctionEnded",
      "type": "event"
    },
    {
      "anonymous": false,
      "inputs": [
        {
          "indexed": false,
          "name": "auctionId",
          "type": "uint256"
        },
        {
          "indexed": false,
          "name": "createdBy",
          "type": "address"
        }
      ],
      "name": "EnergyConsumed",
      "type": "event"
    },
    {
      "constant": false,
      "inputs": [],
      "name": "registerUser",
      "outputs": [],
      "payable": false,
      "stateMutability": "nonpayable",
      "type": "function"
    },
    {
      "constant": false,
      "inputs": [
        {
          "name": "_quantity",
          "type": "uint256"
        },
        {
          "name": "_biddingTime",
          "type": "uint256"
        }
      ],
      "name": "generateEnergy",
      "outputs": [],
      "payable": false,
      "stateMutability": "nonpayable",
      "type": "function"
    },
    {
      "constant": false,
      "inputs": [
        {
          "name": "auctionId",
          "type": "uint256"
        },
        {
          "name": "bid",
          "type": "uint256"
        }
      ],
      "name": "bidForEnergy",
      "outputs": [],
      "payable": false,
      "stateMutability": "nonpayable",
      "type": "function"
    },
    {
      "constant": false,
      "inputs": [
        {
          "name": "auctionId",
          "type": "uint256"
        }
      ],
      "name": "endAuction",
      "outputs": [],
      "payable": false,
      "stateMutability": "nonpayable",
      "type": "function"
    },
    {
      "constant": false,
      "inputs": [
        {
          "name": "auctionId",
          "type": "uint256"
        }
      ],
      "name": "buyerApprove",
      "outputs": [],
      "payable": false,
      "stateMutability": "nonpayable",
      "type": "function"
    },
    {
      "constant": false,
      "inputs": [
        {
          "name": "auctionId",
          "type": "uint256"
        }
      ],
      "name": "buyerAbort",
      "outputs": [],
      "payable": false,
      "stateMutability": "nonpayable",
      "type": "function"
    },
    {
      "constant": true,
      "inputs": [],
      "name": "getAvailableEnergy",
      "outputs": [
        {
          "name": "",
          "type": "uint256"
        }
      ],
      "payable": false,
      "stateMutability": "view",
      "type": "function"
    },
    {
      "constant": true,
      "inputs": [
        {
          "name": "usr",
          "type": "address"
        }
      ],
      "name": "isRegistered",
      "outputs": [
        {
          "name": "",
          "type": "bool"
        }
      ],
      "payable": false,
      "stateMutability": "view",
      "type": "function"
    },
    {
      "constant": true,
      "inputs": [],
      "name": "getLatestAuction",
      "outputs": [
        {
          "name": "",
          "type": "uint256"
        },
        {
          "name": "",
          "type": "address"
        },
        {
          "name": "",
          "type": "uint256"
        },
        {
          "name": "",
          "type": "uint256"
        }
      ],
      "payable": false,
      "stateMutability": "view",
      "type": "function"
    },
    {
      "constant": true,
      "inputs": [
        {
          "name": "usr",
          "type": "address"
        }
      ],
      "name": "getEnergyBalance",
      "outputs": [
        {
          "name": "",
          "type": "uint256"
        }
      ],
      "payable": false,
      "stateMutability": "view",
      "type": "function"
    },
    {
      "constant": true,
      "inputs": [
        {
          "name": "usr",
          "type": "address"
        }
      ],
      "name": "getCoinBalance",
      "outputs": [
        {
          "name": "",
          "type": "uint256"
        }
      ],
      "payable": false,
      "stateMutability": "view",
      "type": "function"
    },
    {
      "constant": true,
      "inputs": [
        {
          "name": "auctionId",
          "type": "uint256"
        }
      ],
      "name": "getHighestBid",
      "outputs": [
        {
          "name": "",
          "type": "uint256"
        }
      ],
      "payable": false,
      "stateMutability": "view",
      "type": "function"
    }
  ],
  "bytecode": "0x60806040526000600460006101000a81548160ff02191690831515021790555060006005556000600655600060075534801561003a57600080fd5b506116c08061004a6000396000f3006080604052600436106100db576000357c0100000000000000000000000000000000000000000000000000000000900463ffffffff16806308a4e6b3146100e0578063445b2fae1461010b57806346352b58146101425780634d3820eb146101995780635f28bc5b146101b0578063613b0c031461021c57806374569c9114610273578063758654c2146102a057806383dd5d10146102f75780638f288644146103245780639c5d136914610365578063a0d035261461039c578063b9a2de3a146103f7578063c3c5a54714610424578063d77ab8ab1461047f575b600080fd5b3480156100ec57600080fd5b506100f56104d6565b6040518082815260200191505060405180910390f35b34801561011757600080fd5b5061014060048036038101908080359060200190929190803590602001909291905050506104e0565b005b34801561014e57600080fd5b50610183600480360381019080803573ffffffffffffffffffffffffffffffffffffffff1690602001909291905050506107c1565b6040518082815260200191505060405180910390f35b3480156101a557600080fd5b506101ae610862565b005b3480156101bc57600080fd5b506101c561095a565b604051808581526020018473ffffffffffffffffffffffffffffffffffffffff1673ffffffffffffffffffffffffffffffffffffffff16815260200183815260200182815260200194505050505060405180910390f35b34801561022857600080fd5b5061025d600480360381019080803573ffffffffffffffffffffffffffffffffffffffff1690602001909291905050506109da565b6040518082815260200191505060405180910390f35b34801561027f57600080fd5b5061029e600480360381019080803590602001909291905050506109f2565b005b3480156102ac57600080fd5b506102e1600480360381019080803573ffffffffffffffffffffffffffffffffffffffff169060200190929190505050610c75565b6040518082815260200191505060405180910390f35b34801561030357600080fd5b5061032260048036038101908080359060200190929190505050610d16565b005b34801561033057600080fd5b5061034f60048036038101908080359060200190929190505050610e5d565b6040518082815260200191505060405180910390f35b34801561037157600080fd5b5061039a6004803603810190808035906020019092919080359060200190929190505050610e81565b005b3480156103a857600080fd5b506103dd600480360381019080803573ffffffffffffffffffffffffffffffffffffffff16906020019092919050505061112e565b604051808215151515815260200191505060405180910390f35b34801561040357600080fd5b506104226004803603810190808035906020019092919050505061114e565b005b34801561043057600080fd5b50610465600480360381019080803573ffffffffffffffffffffffffffffffffffffffff169060200190929190505050611518565b604051808215151515815260200191505060405180910390f35b34801561048b57600080fd5b506104c0600480360381019080803573ffffffffffffffffffffffffffffffffffffffff16906020019092919050505061156e565b6040518082815260200191505060405180910390f35b6000600754905090565b6000600160003373ffffffffffffffffffffffffffffffffffffffff1673ffffffffffffffffffffffffffffffffffffffff16815260200190815260200160002060009054906101000a900460ff16151561053a57600080fd5b60008311151561054957600080fd5b82600360003373ffffffffffffffffffffffffffffffffffffffff1673ffffffffffffffffffffffffffffffffffffffff168152602001908152602001600020600082825401925050819055508260076000828254019250508190555060056000815480929190600101919050559050610100604051908101604052808481526020014281526020013373ffffffffffffffffffffffffffffffffffffffff1681526020016105f742611586565b8152602001834201815260200160008152602001600073ffffffffffffffffffffffffffffffffffffffff16815260200160001515815250600080838152602001908152602001600020600082015181600001556020820151816001015560408201518160020160006101000a81548173ffffffffffffffffffffffffffffffffffffffff021916908373ffffffffffffffffffffffffffffffffffffffff160217905550606082015181600301556080820151816004015560a0820151816005015560c08201518160060160006101000a81548173ffffffffffffffffffffffffffffffffffffffff021916908373ffffffffffffffffffffffffffffffffffffffff16021790555060e08201518160060160146101000a81548160ff0219169083151502179055509050506001600460006101000a81548160ff0219169083151502179055507f516f87d7a577a762ae948978aa18425b3eaed037b3290f9f2761f4d57efa2306818484420133604051808581526020018481526020018381526020018273ffffffffffffffffffffffffffffffffffffffff1673ffffffffffffffffffffffffffffffffffffffff16815260200194505050505060405180910390a1505050565b6000600160008373ffffffffffffffffffffffffffffffffffffffff1673ffffffffffffffffffffffffffffffffffffffff16815260200190815260200160002060009054906101000a900460ff16151561081b57600080fd5b600360008373ffffffffffffffffffffffffffffffffffffffff1673ffffffffffffffffffffffffffffffffffffffff168152602001908152602001600020549050919050565b600160003373ffffffffffffffffffffffffffffffffffffffff1673ffffffffffffffffffffffffffffffffffffffff16815260200190815260200160002060009054906101000a900460ff161515156108bb57600080fd5b60018060003373ffffffffffffffffffffffffffffffffffffffff1673ffffffffffffffffffffffffffffffffffffffff16815260200190815260200160002060006101000a81548160ff0219169083151502179055506103e8600260003373ffffffffffffffffffffffffffffffffffffffff1673ffffffffffffffffffffffffffffffffffffffff16815260200190815260200160002081905550565b6000806000806000600460009054906101000a900460ff16151561097d57600080fd5b600080600160055403815260200190815260200160002090506001600554038160020160009054906101000a900473ffffffffffffffffffffffffffffffffffffffff168260000154836004015494509450945094505090919293565b60026020528060005260406000206000915090505481565b6000600160003373ffffffffffffffffffffffffffffffffffffffff1673ffffffffffffffffffffffffffffffffffffffff16815260200190815260200160002060009054906101000a900460ff161515610a4c57600080fd5b60008083815260200190815260200160002090508060060160149054906101000a900460ff161515610a7d57600080fd5b8060060160009054906101000a900473ffffffffffffffffffffffffffffffffffffffff1673ffffffffffffffffffffffffffffffffffffffff163373ffffffffffffffffffffffffffffffffffffffff16141515610adb57600080fd5b8060000154600360008360020160009054906101000a900473ffffffffffffffffffffffffffffffffffffffff1673ffffffffffffffffffffffffffffffffffffffff1673ffffffffffffffffffffffffffffffffffffffff1681526020019081526020016000206000828254039250508190555080600001546007600082825403925050819055508060050154600260008360020160009054906101000a900473ffffffffffffffffffffffffffffffffffffffff1673ffffffffffffffffffffffffffffffffffffffff1673ffffffffffffffffffffffffffffffffffffffff168152602001908152602001600020600082825401925050819055507febfe1b77d8f07f1f9bdd4431a6aaef9a7d47c0cb2248cd478686c47ade32e9cf828260020160009054906101000a900473ffffffffffffffffffffffffffffffffffffffff16604051808381526020018273ffffffffffffffffffffffffffffffffffffffff1673ffffffffffffffffffffffffffffffffffffffff1681526020019250505060405180910390a1610c71826115a3565b5050565b6000600160008373ffffffffffffffffffffffffffffffffffffffff1673ffffffffffffffffffffffffffffffffffffffff16815260200190815260200160002060009054906101000a900460ff161515610ccf57600080fd5b600260008373ffffffffffffffffffffffffffffffffffffffff1673ffffffffffffffffffffffffffffffffffffffff168152602001908152602001600020549050919050565b6000600160003373ffffffffffffffffffffffffffffffffffffffff1673ffffffffffffffffffffffffffffffffffffffff16815260200190815260200160002060009054906101000a900460ff161515610d7057600080fd5b60008083815260200190815260200160002090508060060160149054906101000a900460ff161515610da157600080fd5b8060060160009054906101000a900473ffffffffffffffffffffffffffffffffffffffff1673ffffffffffffffffffffffffffffffffffffffff163373ffffffffffffffffffffffffffffffffffffffff16141515610dff57600080fd5b8060050154600260003373ffffffffffffffffffffffffffffffffffffffff1673ffffffffffffffffffffffffffffffffffffffff16815260200190815260200160002060008282540192505081905550610e59826115a3565b5050565b60008060008084815260200190815260200160002090508060050154915050919050565b6000600160003373ffffffffffffffffffffffffffffffffffffffff1673ffffffffffffffffffffffffffffffffffffffff16815260200190815260200160002060009054906101000a900460ff161515610edb57600080fd5b81600260003373ffffffffffffffffffffffffffffffffffffffff1673ffffffffffffffffffffffffffffffffffffffff1681526020019081526020016000205410151515610f2957600080fd5b600080848152602001908152602001600020905080600401544211151515610f5057600080fd5b806005015482111515610f6257611129565b60008160060160009054906101000a900473ffffffffffffffffffffffffffffffffffffffff1673ffffffffffffffffffffffffffffffffffffffff1614151561101c578060050154600260008360060160009054906101000a900473ffffffffffffffffffffffffffffffffffffffff1673ffffffffffffffffffffffffffffffffffffffff1673ffffffffffffffffffffffffffffffffffffffff168152602001908152602001600020600082825401925050819055505b338160060160006101000a81548173ffffffffffffffffffffffffffffffffffffffff021916908373ffffffffffffffffffffffffffffffffffffffff16021790555081816005018190555081600260003373ffffffffffffffffffffffffffffffffffffffff1673ffffffffffffffffffffffffffffffffffffffff168152602001908152602001600020600082825403925050819055507f35a3641ae7b6d0a0ea90013e8f1bb2a0076bbad0bafb86e57050012d05bc090f833384604051808481526020018373ffffffffffffffffffffffffffffffffffffffff1673ffffffffffffffffffffffffffffffffffffffff168152602001828152602001935050505060405180910390a15b505050565b60016020528060005260406000206000915054906101000a900460ff1681565b6000600160003373ffffffffffffffffffffffffffffffffffffffff1673ffffffffffffffffffffffffffffffffffffffff16815260200190815260200160002060009054906101000a900460ff1615156111a857600080fd5b60008083815260200190815260200160002090508060020160009054906101000a900473ffffffffffffffffffffffffffffffffffffffff1673ffffffffffffffffffffffffffffffffffffffff163373ffffffffffffffffffffffffffffffffffffffff1614151561121a57600080fd5b8060060160149054906101000a900460ff1615151561123857600080fd5b8060040154421015151561124b57600080fd5b60018160060160146101000a81548160ff02191690831515021790555060066000815480929190600101919050555060055460065414156112a2576000600460006101000a81548160ff0219169083151502179055505b60008160060160009054906101000a900473ffffffffffffffffffffffffffffffffffffffff1673ffffffffffffffffffffffffffffffffffffffff161415611479578060000154600360008360020160009054906101000a900473ffffffffffffffffffffffffffffffffffffffff1673ffffffffffffffffffffffffffffffffffffffff1673ffffffffffffffffffffffffffffffffffffffff1681526020019081526020016000206000828254039250508190555080600001546007600082825403925050819055508060000154816003015402600260008360020160009054906101000a900473ffffffffffffffffffffffffffffffffffffffff1673ffffffffffffffffffffffffffffffffffffffff1673ffffffffffffffffffffffffffffffffffffffff168152602001908152602001600020600082825401925050819055507febfe1b77d8f07f1f9bdd4431a6aaef9a7d47c0cb2248cd478686c47ade32e9cf828260020160009054906101000a900473ffffffffffffffffffffffffffffffffffffffff16604051808381526020018273ffffffffffffffffffffffffffffffffffffffff1673ffffffffffffffffffffffffffffffffffffffff1681526020019250505060405180910390a15b7fd2aa34a4fdbbc6dff6a3e56f46e0f3ae2a31d7785ff3487aa5c95c642acea501828260060160009054906101000a900473ffffffffffffffffffffffffffffffffffffffff168360050154604051808481526020018373ffffffffffffffffffffffffffffffffffffffff1673ffffffffffffffffffffffffffffffffffffffff168152602001828152602001935050505060405180910390a15050565b6000600160008373ffffffffffffffffffffffffffffffffffffffff1673ffffffffffffffffffffffffffffffffffffffff16815260200190815260200160002060009054906101000a900460ff169050919050565b60036020528060005260406000206000915090505481565b600080821115611599576001905061159e565b600290505b919050565b600080600083815260200190815260200160002090506000816005018190555060008160060160006101000a81548173ffffffffffffffffffffffffffffffffffffffff021916908373ffffffffffffffffffffffffffffffffffffffff1602179055506000816004018190555060008160020160006101000a81548173ffffffffffffffffffffffffffffffffffffffff021916908373ffffffffffffffffffffffffffffffffffffffff16021790555060008160010181905550600081600001819055506000816003018190555060008160060160146101000a81548160ff02191690831515021790555050505600a165627a7a7230582001fb198afc13823c365c9e6b380b2828cb1da42cf9b6bc183f132bae59fec7670029",
  "source": "pragma solidity ^0.4.17;\n\ncontract EnergyMarket {\n\n    uint constant HI_RATE_PRICE = 2;\n    uint constant LOW_RATE_PRICE = 1;\n\n    struct EnergyAuction {\n        uint quantity; // amount of energy generated\n        uint createdAt; // time of energy creation\n        address createdBy; // who the energy was created by\n        uint basePrice; // min price charged for the energy\n        uint auctionEnd; // time of auction end\n        uint highestBid; // value of highest bid made\n        address highestBidder; // address of highest bidder\n        bool ended; // has the auction ended?\n    }\n\n    mapping(uint => EnergyAuction) auctions;\n    mapping(address => bool) public hasRegistered;\n    mapping(address => uint) public coinBalances;\n    mapping(address => uint) public energyBalances;\n\n    bool isAvailableEnergy = false;\n    uint numAuctions = 0;\n    uint firstValidAuction = 0;\n    uint totalAvailableEnergy = 0;\n\n    event EnergyGenerated(uint auctionId, uint quantity, uint auctionEnd, address createdBy);\n    event BidIncreased(uint auctionId, address bidder, uint amount);\n    event AuctionEnded(uint auctionId, address highestBidder, uint highestBid);\n    event EnergyConsumed(uint auctionId, address createdBy);\n\n    modifier validAuction(uint auctionId) {\n        require(auctionId >= firstValidAuction);\n        _;\n    }\n\n    modifier onlyRegistered() {\n        require(hasRegistered[msg.sender]);\n        _;\n    }\n\n\n    function registerUser() public {\n        // TODO: attack vulnerability because will create extra memory; require ether to be sent with payable\n        require(!hasRegistered[msg.sender]);\n        hasRegistered[msg.sender] = true;\n        coinBalances[msg.sender] = 1000;\n    }\n\n    function generateEnergy(uint _quantity, uint _biddingTime) public onlyRegistered {\n        require(_quantity > 0);\n\n        energyBalances[msg.sender] += _quantity;\n        totalAvailableEnergy += _quantity;\n\n        uint auctionId = numAuctions++;\n        auctions[auctionId] = EnergyAuction({\n            quantity: _quantity,\n            createdAt: now,\n            createdBy: msg.sender,\n            basePrice: lookupPrice(now),\n            auctionEnd: now + _biddingTime,\n            highestBid: 0,\n            highestBidder: 0,\n            ended: false\n        });\n\n        isAvailableEnergy = true;\n        emit EnergyGenerated(auctionId, _quantity, now + _biddingTime, msg.sender);\n    }\n\n    function bidForEnergy(uint auctionId, uint bid) public onlyRegistered {\n        require(coinBalances[msg.sender] >= bid);\n\n        EnergyAuction storage a = auctions[auctionId];\n\n        require(now <= a.auctionEnd);\n        // require(bid > a.highestBid);\n        if (bid <= a.highestBid) {\n            return;\n        }\n\n        if (a.highestBidder != 0) {\n            coinBalances[a.highestBidder] += a.highestBid;\n        }\n\n        a.highestBidder = msg.sender;\n        a.highestBid = bid;\n        coinBalances[msg.sender] -= bid;\n        emit BidIncreased(auctionId, msg.sender, bid); //TODO: add auction id\n    }\n\n    function endAuction(uint auctionId) public onlyRegistered {\n        EnergyAuction storage a = auctions[auctionId];\n\n        require(msg.sender == a.createdBy);\n\n        require(!a.ended);\n        require(now >= a.auctionEnd);\n\n        a.ended = true;\n\n        // TODO: figure out what I want to do with firstValidAuction\n        firstValidAuction++;\n        if (firstValidAuction == numAuctions) {\n            isAvailableEnergy = false;\n        }\n\n        if (a.highestBidder == 0) {\n            energyBalances[a.createdBy] -= a.quantity;\n            totalAvailableEnergy -= a.quantity;\n            coinBalances[a.createdBy] += a.basePrice * a.quantity;\n            emit EnergyConsumed(auctionId, a.createdBy);\n        }\n\n        emit AuctionEnded(auctionId, a.highestBidder, a.highestBid);\n    }\n\n    function buyerApprove(uint auctionId) public onlyRegistered {\n        EnergyAuction storage a = auctions[auctionId];\n\n        require(a.ended);\n        require(msg.sender == a.highestBidder);\n\n        energyBalances[a.createdBy] -= a.quantity;\n        totalAvailableEnergy -= a.quantity;\n        coinBalances[a.createdBy] += a.highestBid;\n\n        emit EnergyConsumed(auctionId, a.createdBy);\n        clean(auctionId);\n    }\n\n    function buyerAbort(uint auctionId) public onlyRegistered {\n        EnergyAuction storage a = auctions[auctionId];\n\n        require(a.ended);\n        require(msg.sender == a.highestBidder);\n\n        coinBalances[msg.sender] += a.highestBid;\n        clean(auctionId);\n    }\n\n    function clean(uint auctionId) private {\n        EnergyAuction storage a = auctions[auctionId];\n        a.highestBid = 0;\n        a.highestBidder = 0;\n        a.auctionEnd = 0;\n        a.createdBy = 0;\n        a.createdAt = 0;\n        a.quantity = 0;\n        a.basePrice = 0;\n        a.ended = false;\n    }\n\n    /*\n    function purchaseEnergy(uint _purchaseQuantity) public returns (uint) {\n        require(hasRegistered[msg.sender]);\n        require(_purchaseQuantity > 0);\n        require(_purchaseQuantity <= totalAvailableEnergy);\n\n        // don't want to wait until end to check\n        require(coinBalances[msg.sender] >= _purchaseQuantity * HI_RATE_PRICE);\n\n        uint unitsLength = energyUnits.length;\n\n        uint numUnitsExpended = 0;\n        uint accumulatedEnergy = 0;\n        uint accumulatedCost = 0;\n\n        // Loop through energyUnits until demand is met\n        // hacky implementation because can only remove from the end\n        for (uint i = unitsLength-1; i >= 0; i--) {\n            EnergyUnit storage thisUnit = energyUnits[i];\n\n            uint outstandingEnergy = _purchaseQuantity - accumulatedEnergy;\n            uint energyToPurchase;\n\n            if (outstandingEnergy < thisUnit.quantity) {\n                energyToPurchase = outstandingEnergy;\n            } else {\n                energyToPurchase = thisUnit.quantity;\n            }\n\n            accumulatedEnergy += energyToPurchase;\n            uint revenue = energyToPurchase * thisUnit.price;\n            accumulatedCost += revenue;\n            //escrow[thisUnit.createdBy] += revenue;\n            energyBalances[thisUnit.createdBy] -= energyToPurchase;\n            totalAvailableEnergy -= energyToPurchase;\n            coinBalances[thisUnit.createdBy] += revenue;\n            thisUnit.quantity -= energyToPurchase;\n\n            if (accumulatedEnergy < _purchaseQuantity) {\n                numUnitsExpended += 1;\n            } else {\n                break;\n            }\n        }\n\n        coinBalances[msg.sender] -= accumulatedCost;\n\n        // Remove numUnitsExpended from the array and clear removed elements (automatically)\n        energyUnits.length = unitsLength - numUnitsExpended;\n\n        return accumulatedEnergy;\n    }\n    */\n\n\n    function getAvailableEnergy() public view returns (uint) {\n        return totalAvailableEnergy;\n    }\n\n    function isRegistered(address usr) public view returns (bool) {\n        return hasRegistered[usr];\n    }\n\n    function getLatestAuction() public view returns (uint, address, uint, uint) {\n        require(isAvailableEnergy);\n        EnergyAuction storage a = auctions[numAuctions-1];\n        return (numAuctions-1, a.createdBy, a.quantity, a.auctionEnd);\n    }\n\n    function getEnergyBalance(address usr) public view returns (uint) {\n        require(hasRegistered[usr]);\n        return energyBalances[usr];\n    }\n\n    function getCoinBalance(address usr) public view returns (uint) {\n        require(hasRegistered[usr]);\n        return coinBalances[usr];\n    }\n\n    function getHighestBid(uint auctionId) public view returns (uint) {\n        EnergyAuction storage a = auctions[auctionId];\n        return a.highestBid;\n    }\n\n    function lookupPrice(uint time) private pure returns (uint) {\n        // TODO: find out a way to determine the time of the day based on the absolute unix timestamp\n        if (time > 0) {\n            return LOW_RATE_PRICE;\n        } else {\n            return HI_RATE_PRICE;\n        }\n    }\n}\n",
  "sourcePath": "/Users/turkg/Developer/truffle/transactive-energy-contract/contracts/EnergyMarket.sol",
  "compiler": {
    "name": "solc",
    "version": "0.4.23+commit.124ca40d.Emscripten.clang"
  },
  "schemaVersion": "2.0.0",
  "updatedAt": "2018-06-05T09:35:17.126Z"
}