{
  "contractName": "EnergyMarket",
  "abi": [
    {
      "constant": true,
      "inputs": [],
      "name": "getAvailableEnergy",
      "outputs": [
        {
          "name": "",
          "type": "uint256"
        }
      ],
      "payable": false,
      "stateMutability": "view",
      "type": "function"
    },
    {
      "constant": false,
      "inputs": [
        {
          "name": "_quantity",
          "type": "uint256"
        },
        {
          "name": "_biddingTime",
          "type": "uint256"
        }
      ],
      "name": "generateEnergy",
      "outputs": [],
      "payable": false,
      "stateMutability": "nonpayable",
      "type": "function"
    },
    {
      "constant": true,
      "inputs": [
        {
          "name": "usr",
          "type": "address"
        }
      ],
      "name": "getEnergyBalance",
      "outputs": [
        {
          "name": "",
          "type": "uint256"
        }
      ],
      "payable": false,
      "stateMutability": "view",
      "type": "function"
    },
    {
      "constant": false,
      "inputs": [],
      "name": "registerUser",
      "outputs": [],
      "payable": false,
      "stateMutability": "nonpayable",
      "type": "function"
    },
    {
      "constant": true,
      "inputs": [],
      "name": "getLatestAuction",
      "outputs": [
        {
          "name": "",
          "type": "uint256"
        },
        {
          "name": "",
          "type": "uint256"
        },
        {
          "name": "",
          "type": "uint256"
        }
      ],
      "payable": false,
      "stateMutability": "view",
      "type": "function"
    },
    {
      "constant": true,
      "inputs": [
        {
          "name": "",
          "type": "address"
        }
      ],
      "name": "coinBalances",
      "outputs": [
        {
          "name": "",
          "type": "uint256"
        }
      ],
      "payable": false,
      "stateMutability": "view",
      "type": "function"
    },
    {
      "constant": false,
      "inputs": [
        {
          "name": "auctionId",
          "type": "uint256"
        }
      ],
      "name": "buyerApprove",
      "outputs": [],
      "payable": false,
      "stateMutability": "nonpayable",
      "type": "function"
    },
    {
      "constant": true,
      "inputs": [
        {
          "name": "usr",
          "type": "address"
        }
      ],
      "name": "getCoinBalance",
      "outputs": [
        {
          "name": "",
          "type": "uint256"
        }
      ],
      "payable": false,
      "stateMutability": "view",
      "type": "function"
    },
    {
      "constant": false,
      "inputs": [
        {
          "name": "auctionId",
          "type": "uint256"
        }
      ],
      "name": "buyerAbort",
      "outputs": [],
      "payable": false,
      "stateMutability": "nonpayable",
      "type": "function"
    },
    {
      "constant": false,
      "inputs": [
        {
          "name": "auctionId",
          "type": "uint256"
        },
        {
          "name": "bid",
          "type": "uint256"
        }
      ],
      "name": "bidForEnergy",
      "outputs": [],
      "payable": false,
      "stateMutability": "nonpayable",
      "type": "function"
    },
    {
      "constant": true,
      "inputs": [
        {
          "name": "",
          "type": "address"
        }
      ],
      "name": "hasRegistered",
      "outputs": [
        {
          "name": "",
          "type": "bool"
        }
      ],
      "payable": false,
      "stateMutability": "view",
      "type": "function"
    },
    {
      "constant": false,
      "inputs": [
        {
          "name": "auctionId",
          "type": "uint256"
        }
      ],
      "name": "endAuction",
      "outputs": [],
      "payable": false,
      "stateMutability": "nonpayable",
      "type": "function"
    },
    {
      "constant": true,
      "inputs": [
        {
          "name": "usr",
          "type": "address"
        }
      ],
      "name": "isRegistered",
      "outputs": [
        {
          "name": "",
          "type": "bool"
        }
      ],
      "payable": false,
      "stateMutability": "view",
      "type": "function"
    },
    {
      "constant": true,
      "inputs": [
        {
          "name": "",
          "type": "address"
        }
      ],
      "name": "energyBalances",
      "outputs": [
        {
          "name": "",
          "type": "uint256"
        }
      ],
      "payable": false,
      "stateMutability": "view",
      "type": "function"
    },
    {
      "anonymous": false,
      "inputs": [
        {
          "indexed": false,
          "name": "newTotal",
          "type": "uint256"
        },
        {
          "indexed": false,
          "name": "auctionId",
          "type": "uint256"
        },
        {
          "indexed": false,
          "name": "quantity",
          "type": "uint256"
        },
        {
          "indexed": false,
          "name": "auctionEnd",
          "type": "uint256"
        },
        {
          "indexed": false,
          "name": "createdBy",
          "type": "address"
        }
      ],
      "name": "EnergyGenerated",
      "type": "event"
    },
    {
      "anonymous": false,
      "inputs": [
        {
          "indexed": false,
          "name": "bidder",
          "type": "address"
        },
        {
          "indexed": false,
          "name": "amount",
          "type": "uint256"
        }
      ],
      "name": "BidIncreased",
      "type": "event"
    },
    {
      "anonymous": false,
      "inputs": [
        {
          "indexed": false,
          "name": "highestBidder",
          "type": "address"
        },
        {
          "indexed": false,
          "name": "highestBid",
          "type": "uint256"
        },
        {
          "indexed": false,
          "name": "concludedAuction",
          "type": "uint256"
        }
      ],
      "name": "AuctionEnded",
      "type": "event"
    },
    {
      "anonymous": false,
      "inputs": [
        {
          "indexed": false,
          "name": "newTotal",
          "type": "uint256"
        },
        {
          "indexed": false,
          "name": "auctionId",
          "type": "uint256"
        },
        {
          "indexed": false,
          "name": "createdBy",
          "type": "address"
        }
      ],
      "name": "EnergyConsumed",
      "type": "event"
    }
  ],
  "bytecode": "0x60606040526000600460006101000a81548160ff021916908315150217905550600060055560006006556000600755341561003957600080fd5b611592806100486000396000f3006060604052600436106100d0576000357c0100000000000000000000000000000000000000000000000000000000900463ffffffff16806308a4e6b3146100d5578063445b2fae146100fe57806346352b581461012a5780634d3820eb146101775780635f28bc5b1461018c578063613b0c03146101c357806374569c9114610210578063758654c21461023357806383dd5d10146102805780639c5d1369146102a3578063a0d03526146102cf578063b9a2de3a14610320578063c3c5a54714610343578063d77ab8ab14610394575b600080fd5b34156100e057600080fd5b6100e86103e1565b6040518082815260200191505060405180910390f35b341561010957600080fd5b61012860048080359060200190919080359060200190919050506103eb565b005b341561013557600080fd5b610161600480803573ffffffffffffffffffffffffffffffffffffffff169060200190919050506106d6565b6040518082815260200191505060405180910390f35b341561018257600080fd5b61018a610777565b005b341561019757600080fd5b61019f61086f565b60405180848152602001838152602001828152602001935050505060405180910390f35b34156101ce57600080fd5b6101fa600480803573ffffffffffffffffffffffffffffffffffffffff169060200190919050506108c5565b6040518082815260200191505060405180910390f35b341561021b57600080fd5b61023160048080359060200190919050506108dd565b005b341561023e57600080fd5b61026a600480803573ffffffffffffffffffffffffffffffffffffffff16906020019091905050610b6a565b6040518082815260200191505060405180910390f35b341561028b57600080fd5b6102a16004808035906020019091905050610c0b565b005b34156102ae57600080fd5b6102cd6004808035906020019091908035906020019091905050610d52565b005b34156102da57600080fd5b610306600480803573ffffffffffffffffffffffffffffffffffffffff16906020019091905050610ff6565b604051808215151515815260200191505060405180910390f35b341561032b57600080fd5b6103416004808035906020019091905050611016565b005b341561034e57600080fd5b61037a600480803573ffffffffffffffffffffffffffffffffffffffff169060200190919050506113ea565b604051808215151515815260200191505060405180910390f35b341561039f57600080fd5b6103cb600480803573ffffffffffffffffffffffffffffffffffffffff16906020019091905050611440565b6040518082815260200191505060405180910390f35b6000600754905090565b6000600160003373ffffffffffffffffffffffffffffffffffffffff1673ffffffffffffffffffffffffffffffffffffffff16815260200190815260200160002060009054906101000a900460ff16151561044557600080fd5b60008311151561045457600080fd5b82600360003373ffffffffffffffffffffffffffffffffffffffff1673ffffffffffffffffffffffffffffffffffffffff168152602001908152602001600020600082825401925050819055508260076000828254019250508190555060056000815480929190600101919050559050610100604051908101604052808481526020014281526020013373ffffffffffffffffffffffffffffffffffffffff16815260200161050242611458565b8152602001834201815260200160008152602001600073ffffffffffffffffffffffffffffffffffffffff16815260200160001515815250600080838152602001908152602001600020600082015181600001556020820151816001015560408201518160020160006101000a81548173ffffffffffffffffffffffffffffffffffffffff021916908373ffffffffffffffffffffffffffffffffffffffff160217905550606082015181600301556080820151816004015560a0820151816005015560c08201518160060160006101000a81548173ffffffffffffffffffffffffffffffffffffffff021916908373ffffffffffffffffffffffffffffffffffffffff16021790555060e08201518160060160146101000a81548160ff0219169083151502179055509050506001600460006101000a81548160ff0219169083151502179055507f194697e037db6b8593cc330d846b8e5c6cb3087fad01bd6dc985371c8c8c4767600754828585420133604051808681526020018581526020018481526020018381526020018273ffffffffffffffffffffffffffffffffffffffff1673ffffffffffffffffffffffffffffffffffffffff1681526020019550505050505060405180910390a1505050565b6000600160008373ffffffffffffffffffffffffffffffffffffffff1673ffffffffffffffffffffffffffffffffffffffff16815260200190815260200160002060009054906101000a900460ff16151561073057600080fd5b600360008373ffffffffffffffffffffffffffffffffffffffff1673ffffffffffffffffffffffffffffffffffffffff168152602001908152602001600020549050919050565b600160003373ffffffffffffffffffffffffffffffffffffffff1673ffffffffffffffffffffffffffffffffffffffff16815260200190815260200160002060009054906101000a900460ff161515156107d057600080fd5b60018060003373ffffffffffffffffffffffffffffffffffffffff1673ffffffffffffffffffffffffffffffffffffffff16815260200190815260200160002060006101000a81548160ff0219169083151502179055506103e8600260003373ffffffffffffffffffffffffffffffffffffffff1673ffffffffffffffffffffffffffffffffffffffff16815260200190815260200160002081905550565b600080600080600460009054906101000a900460ff16151561089057600080fd5b600080600160055403815260200190815260200160002090506001600554038160000154826004015493509350935050909192565b60026020528060005260406000206000915090505481565b6000600160003373ffffffffffffffffffffffffffffffffffffffff1673ffffffffffffffffffffffffffffffffffffffff16815260200190815260200160002060009054906101000a900460ff16151561093757600080fd5b60008083815260200190815260200160002090508060060160149054906101000a900460ff16151561096857600080fd5b8060060160009054906101000a900473ffffffffffffffffffffffffffffffffffffffff1673ffffffffffffffffffffffffffffffffffffffff163373ffffffffffffffffffffffffffffffffffffffff161415156109c657600080fd5b8060000154600360008360020160009054906101000a900473ffffffffffffffffffffffffffffffffffffffff1673ffffffffffffffffffffffffffffffffffffffff1673ffffffffffffffffffffffffffffffffffffffff1681526020019081526020016000206000828254039250508190555080600001546007600082825403925050819055508060050154600260008360020160009054906101000a900473ffffffffffffffffffffffffffffffffffffffff1673ffffffffffffffffffffffffffffffffffffffff1673ffffffffffffffffffffffffffffffffffffffff168152602001908152602001600020600082825401925050819055507f9a03bcfbb8bf5c02657894fb5ebca9588f1e96c630527265be7debeafcfd071e600754838360020160009054906101000a900473ffffffffffffffffffffffffffffffffffffffff16604051808481526020018381526020018273ffffffffffffffffffffffffffffffffffffffff1673ffffffffffffffffffffffffffffffffffffffff168152602001935050505060405180910390a1610b6682611475565b5050565b6000600160008373ffffffffffffffffffffffffffffffffffffffff1673ffffffffffffffffffffffffffffffffffffffff16815260200190815260200160002060009054906101000a900460ff161515610bc457600080fd5b600260008373ffffffffffffffffffffffffffffffffffffffff1673ffffffffffffffffffffffffffffffffffffffff168152602001908152602001600020549050919050565b6000600160003373ffffffffffffffffffffffffffffffffffffffff1673ffffffffffffffffffffffffffffffffffffffff16815260200190815260200160002060009054906101000a900460ff161515610c6557600080fd5b60008083815260200190815260200160002090508060060160149054906101000a900460ff161515610c9657600080fd5b8060060160009054906101000a900473ffffffffffffffffffffffffffffffffffffffff1673ffffffffffffffffffffffffffffffffffffffff163373ffffffffffffffffffffffffffffffffffffffff16141515610cf457600080fd5b8060050154600260003373ffffffffffffffffffffffffffffffffffffffff1673ffffffffffffffffffffffffffffffffffffffff16815260200190815260200160002060008282540192505081905550610d4e82611475565b5050565b6000600160003373ffffffffffffffffffffffffffffffffffffffff1673ffffffffffffffffffffffffffffffffffffffff16815260200190815260200160002060009054906101000a900460ff161515610dac57600080fd5b81600260003373ffffffffffffffffffffffffffffffffffffffff1673ffffffffffffffffffffffffffffffffffffffff1681526020019081526020016000205410151515610dfa57600080fd5b600080848152602001908152602001600020905080600401544211151515610e2157600080fd5b806005015482111515610e3357600080fd5b60008160060160009054906101000a900473ffffffffffffffffffffffffffffffffffffffff1673ffffffffffffffffffffffffffffffffffffffff16141515610eed578060050154600260008360060160009054906101000a900473ffffffffffffffffffffffffffffffffffffffff1673ffffffffffffffffffffffffffffffffffffffff1673ffffffffffffffffffffffffffffffffffffffff168152602001908152602001600020600082825401925050819055505b338160060160006101000a81548173ffffffffffffffffffffffffffffffffffffffff021916908373ffffffffffffffffffffffffffffffffffffffff16021790555081816005018190555081600260003373ffffffffffffffffffffffffffffffffffffffff1673ffffffffffffffffffffffffffffffffffffffff168152602001908152602001600020600082825403925050819055507fcf84a46a93294358c23e7c87e557feb461890c72f3547fb25b455167dcea9efb3383604051808373ffffffffffffffffffffffffffffffffffffffff1673ffffffffffffffffffffffffffffffffffffffff1681526020018281526020019250505060405180910390a1505050565b60016020528060005260406000206000915054906101000a900460ff1681565b6000600160003373ffffffffffffffffffffffffffffffffffffffff1673ffffffffffffffffffffffffffffffffffffffff16815260200190815260200160002060009054906101000a900460ff16151561107057600080fd5b60008083815260200190815260200160002090508060020160009054906101000a900473ffffffffffffffffffffffffffffffffffffffff1673ffffffffffffffffffffffffffffffffffffffff163373ffffffffffffffffffffffffffffffffffffffff161415156110e257600080fd5b8060060160149054906101000a900460ff1615151561110057600080fd5b8060040154421015151561111357600080fd5b60018160060160146101000a81548160ff021916908315150217905550600660008154809291906001019190505550600554600654141561116a576000600460006101000a81548160ff0219169083151502179055505b60008160060160009054906101000a900473ffffffffffffffffffffffffffffffffffffffff1673ffffffffffffffffffffffffffffffffffffffff16141561134b578060000154600360008360020160009054906101000a900473ffffffffffffffffffffffffffffffffffffffff1673ffffffffffffffffffffffffffffffffffffffff1673ffffffffffffffffffffffffffffffffffffffff1681526020019081526020016000206000828254039250508190555080600001546007600082825403925050819055508060000154816003015402600260008360020160009054906101000a900473ffffffffffffffffffffffffffffffffffffffff1673ffffffffffffffffffffffffffffffffffffffff1673ffffffffffffffffffffffffffffffffffffffff168152602001908152602001600020600082825401925050819055507f9a03bcfbb8bf5c02657894fb5ebca9588f1e96c630527265be7debeafcfd071e600754838360020160009054906101000a900473ffffffffffffffffffffffffffffffffffffffff16604051808481526020018381526020018273ffffffffffffffffffffffffffffffffffffffff1673ffffffffffffffffffffffffffffffffffffffff168152602001935050505060405180910390a15b7fc358e8e3f205b5e7453abd5cbac388ca4552b887b69001bc972b88610c7490358160060160009054906101000a900473ffffffffffffffffffffffffffffffffffffffff16826005015484604051808473ffffffffffffffffffffffffffffffffffffffff1673ffffffffffffffffffffffffffffffffffffffff168152602001838152602001828152602001935050505060405180910390a15050565b6000600160008373ffffffffffffffffffffffffffffffffffffffff1673ffffffffffffffffffffffffffffffffffffffff16815260200190815260200160002060009054906101000a900460ff169050919050565b60036020528060005260406000206000915090505481565b60008082111561146b5760019050611470565b600290505b919050565b600080600083815260200190815260200160002090506000816005018190555060008160060160006101000a81548173ffffffffffffffffffffffffffffffffffffffff021916908373ffffffffffffffffffffffffffffffffffffffff1602179055506000816004018190555060008160020160006101000a81548173ffffffffffffffffffffffffffffffffffffffff021916908373ffffffffffffffffffffffffffffffffffffffff16021790555060008160010181905550600081600001819055506000816003018190555060008160060160146101000a81548160ff02191690831515021790555050505600a165627a7a72305820e9a9355d03d2bf8977cb6a56e0ba8971018107dd1e8fd107974766e59851b2910029",
  "source": "pragma solidity ^0.4.17;\n\ncontract EnergyMarket {\n\n    uint constant HI_RATE_PRICE = 2;\n    uint constant LOW_RATE_PRICE = 1;\n\n    struct EnergyAuction {\n        uint quantity; // amount of energy generated\n        uint createdAt; // time of energy creation\n        address createdBy; // who the energy was created by\n        uint basePrice; // min price charged for the energy\n        uint auctionEnd; // time of auction end\n        uint highestBid; // value of highest bid made\n        address highestBidder; // address of highest bidder\n        bool ended; // has the auction ended?\n    }\n\n    mapping(uint => EnergyAuction) auctions;\n    mapping(address => bool) public hasRegistered;\n    mapping(address => uint) public coinBalances;\n    mapping(address => uint) public energyBalances;\n\n    bool isAvailableEnergy = false;\n    uint numAuctions = 0;\n    uint firstValidAuction = 0;\n    uint totalAvailableEnergy = 0;\n\n    event EnergyGenerated(uint newTotal, uint auctionId, uint quantity, uint auctionEnd, address createdBy);\n    event BidIncreased(address bidder, uint amount);\n    event AuctionEnded(address highestBidder, uint highestBid, uint concludedAuction);\n    event EnergyConsumed(uint newTotal, uint auctionId, address createdBy);\n\n    modifier validAuction(uint auctionId) {\n        require(auctionId >= firstValidAuction);\n        _;\n    }\n\n    modifier onlyRegistered() {\n        require(hasRegistered[msg.sender]);\n        _;\n    }\n\n\n    function registerUser() public {\n        // TODO: attack vulnerability because will create extra memory; require ether to be sent with payable\n        require(!hasRegistered[msg.sender]);\n        hasRegistered[msg.sender] = true;\n        coinBalances[msg.sender] = 1000;\n    }\n\n    function generateEnergy(uint _quantity, uint _biddingTime) public onlyRegistered {\n        require(_quantity > 0);\n\n        energyBalances[msg.sender] += _quantity;\n        totalAvailableEnergy += _quantity;\n\n        uint auctionId = numAuctions++;\n        auctions[auctionId] = EnergyAuction({\n            quantity: _quantity,\n            createdAt: now,\n            createdBy: msg.sender,\n            basePrice: lookupPrice(now),\n            auctionEnd: now + _biddingTime,\n            highestBid: 0,\n            highestBidder: 0,\n            ended: false\n        });\n\n        isAvailableEnergy = true;\n        EnergyGenerated(totalAvailableEnergy, auctionId, _quantity, now + _biddingTime, msg.sender);\n    }\n\n    function bidForEnergy(uint auctionId, uint bid) public onlyRegistered {\n        require(coinBalances[msg.sender] >= bid);\n\n        EnergyAuction storage a = auctions[auctionId];\n\n        require(now <= a.auctionEnd);\n        require(bid > a.highestBid);\n\n        if (a.highestBidder != 0) {\n            coinBalances[a.highestBidder] += a.highestBid;\n        }\n\n        a.highestBidder = msg.sender;\n        a.highestBid = bid;\n        coinBalances[msg.sender] -= bid;\n        BidIncreased(msg.sender, bid);\n    }\n\n    function endAuction(uint auctionId) public onlyRegistered {\n        EnergyAuction storage a = auctions[auctionId];\n\n        require(msg.sender == a.createdBy);\n\n        require(!a.ended);\n        require(now >= a.auctionEnd);\n\n        a.ended = true;\n\n        // TODO: figure out what I want to do with firstValidAuction\n        firstValidAuction++;\n        if (firstValidAuction == numAuctions) {\n            isAvailableEnergy = false;\n        }\n\n        if (a.highestBidder == 0) {\n            energyBalances[a.createdBy] -= a.quantity;\n            totalAvailableEnergy -= a.quantity;\n            coinBalances[a.createdBy] += a.basePrice * a.quantity;\n            EnergyConsumed(totalAvailableEnergy, auctionId, a.createdBy);\n        }\n\n        AuctionEnded(a.highestBidder, a.highestBid, auctionId);\n    }\n\n    function buyerApprove(uint auctionId) public onlyRegistered {\n        EnergyAuction storage a = auctions[auctionId];\n\n        require(a.ended);\n        require(msg.sender == a.highestBidder);\n\n        energyBalances[a.createdBy] -= a.quantity;\n        totalAvailableEnergy -= a.quantity;\n        coinBalances[a.createdBy] += a.highestBid;\n\n        EnergyConsumed(totalAvailableEnergy, auctionId, a.createdBy);\n        clean(auctionId);\n    }\n\n    function buyerAbort(uint auctionId) public onlyRegistered {\n        EnergyAuction storage a = auctions[auctionId];\n\n        require(a.ended);\n        require(msg.sender == a.highestBidder);\n\n        coinBalances[msg.sender] += a.highestBid;\n        clean(auctionId);\n    }\n\n    function clean(uint auctionId) private {\n        EnergyAuction storage a = auctions[auctionId];\n        a.highestBid = 0;\n        a.highestBidder = 0;\n        a.auctionEnd = 0;\n        a.createdBy = 0;\n        a.createdAt = 0;\n        a.quantity = 0;\n        a.basePrice = 0;\n        a.ended = false;\n    }\n\n    /*\n    function purchaseEnergy(uint _purchaseQuantity) public returns (uint) {\n        require(hasRegistered[msg.sender]);\n        require(_purchaseQuantity > 0);\n        require(_purchaseQuantity <= totalAvailableEnergy);\n\n        // don't want to wait until end to check\n        require(coinBalances[msg.sender] >= _purchaseQuantity * HI_RATE_PRICE);\n\n        uint unitsLength = energyUnits.length;\n\n        uint numUnitsExpended = 0;\n        uint accumulatedEnergy = 0;\n        uint accumulatedCost = 0;\n\n        // Loop through energyUnits until demand is met\n        // hacky implementation because can only remove from the end\n        for (uint i = unitsLength-1; i >= 0; i--) {\n            EnergyUnit storage thisUnit = energyUnits[i];\n\n            uint outstandingEnergy = _purchaseQuantity - accumulatedEnergy;\n            uint energyToPurchase;\n\n            if (outstandingEnergy < thisUnit.quantity) {\n                energyToPurchase = outstandingEnergy;\n            } else {\n                energyToPurchase = thisUnit.quantity;\n            }\n\n            accumulatedEnergy += energyToPurchase;\n            uint revenue = energyToPurchase * thisUnit.price;\n            accumulatedCost += revenue;\n            //escrow[thisUnit.createdBy] += revenue;\n            energyBalances[thisUnit.createdBy] -= energyToPurchase;\n            totalAvailableEnergy -= energyToPurchase;\n            coinBalances[thisUnit.createdBy] += revenue;\n            thisUnit.quantity -= energyToPurchase;\n\n            if (accumulatedEnergy < _purchaseQuantity) {\n                numUnitsExpended += 1;\n            } else {\n                break;\n            }\n        }\n\n        coinBalances[msg.sender] -= accumulatedCost;\n\n        // Remove numUnitsExpended from the array and clear removed elements (automatically)\n        energyUnits.length = unitsLength - numUnitsExpended;\n\n        return accumulatedEnergy;\n    }\n    */\n\n\n    function getAvailableEnergy() public view returns (uint) {\n        return totalAvailableEnergy;\n    }\n\n    function isRegistered(address usr) public view returns (bool) {\n        return hasRegistered[usr];\n    }\n\n    function getLatestAuction() public view returns (uint, uint, uint) {\n        require(isAvailableEnergy);\n        EnergyAuction storage a = auctions[numAuctions-1];\n        return (numAuctions-1, a.quantity, a.auctionEnd);\n    }\n\n    function getEnergyBalance(address usr) public view returns (uint) {\n        require(hasRegistered[usr]);\n        return energyBalances[usr];\n    }\n\n    function getCoinBalance(address usr) public view returns (uint) {\n        require(hasRegistered[usr]);\n        return coinBalances[usr];\n    }\n\n    function lookupPrice(uint time) private pure returns (uint) {\n        // TODO: find out a way to determine the time of the day based on the absolute unix timestamp\n        if (time > 0) {\n            return LOW_RATE_PRICE;\n        } else {\n            return HI_RATE_PRICE;\n        }\n    }\n}\n",
  "sourcePath": "/Users/turkg/Developer/truffle/transactive-energy-contract/contracts/EnergyMarket.sol",
  "compiler": {
    "name": "solc",
    "version": "0.4.18+commit.9cf6e910.Emscripten.clang"
  },
  "schemaVersion": "1.0.1",
  "updatedAt": "2018-03-26T17:20:34.556Z"
}